:100000000C9463000C948B000C948B000C948B006C
:100010000C948B000C948B000C948B000C948B0034
:100020000C948B000C948B000C948B000C948B0024
:100030000C948B000C948B000C948B000C948B0014
:100040000C9467030C948B000C948B000C948B0025
:100050000C948B000C948B000C948B000C948B00F4
:100060000C948B000C948B000000000024002700EF
:100070002A000000000023002600290000000000E4
:10008000250028002B0004040404040404040202D4
:100090000202020203030303030301020408102007
:1000A0004080010204081020010204081020000012
:1000B0000008000201000003040700000000000027
:1000C00000001205710511241FBECFEFD8E0DEBF7E
:1000D000CDBF11E0A0E0B1E0E2ECFDE002C0059090
:1000E0000D92A830B107D9F721E0A8E0B1E001C036
:1000F0001D92AD32B207E1F710E0C2E6D0E004C0D5
:100100002197FE010E949505C136D107C9F70E94CB
:10011000B1030C94D4060C9400008F929F92AF927E
:10012000BF92CF92DF92EF92FF92CF932091150171
:100130003091160182179307E8F54B01AA24BB24DE
:10014000C82DC52ED62EE72EFF24BC2DA42F20911E
:100150001B01222361F0829E40011124C92D2C9D98
:1001600060011124BD2D249FF0011124AF2FE091D7
:100170002101E0901C01F0901D0130911E01E3135C
:1001800023C09C01220F331F820F931F8E0D9F1DD2
:10019000E0911E01E80FF92FF11DC083E0911F01CE
:1001A000E80FF92FF11DB08320912001820F911DDE
:1001B000FC01A083CF91FF90EF90DF90CF90BF9094
:1001C000AF909F908F900895880F991F880F991F67
:1001D0008E0D9F1D472F552766277727222349F02D
:1001E00030E0249F7001259FF00C349FF00C112407
:1001F0004F2DE80FF92FF11D4083CACF833081F0D6
:1002000028F4813099F08230A9F008958730A9F060
:100210008830C9F08430B1F4809180008F7D03C0B4
:10022000809180008F7780938000089584B58F77C8
:1002300084BD089584B58F7DFBCF8091B0008F770A
:100240008093B00008958091B0008F7DF9CFCF9357
:10025000DF93282F30E0F901E255FF4F8491F90137
:10026000E656FF4FD491F901EA57FF4FC491CC23D2
:1002700091F081110E94FE00EC2FF0E0EE0FFF1FC5
:10028000E458FF4FA591B4918FB7F894EC91D095B5
:10029000DE23DC938FBFDF91CF910895CF93DF935F
:1002A000E0EBF0E08491ECE9F0E0D491E8E8F0E0F4
:1002B000C491CC23A1F081110E94FE00EC2FF0E04C
:1002C000EE0FFF1FEE58FF4FA591B491EC91ED2377
:1002D00081E090E009F480E0DF91CF91089580E023
:1002E00090E0FACFCF93DF9390E0FC01E656FF4F0A
:1002F00024918A579F4FFC0184918823C9F090E094
:10030000880F991FFC01E859FF4FA591B491FC019A
:10031000E458FF4FC591D49161110DC09FB7F89477
:100320008C91209582238C938881282328839FBFDA
:10033000DF91CF910895623051F49FB7F8943C91CA
:10034000822F809583238C93E8812E2BEFCF8FB75C
:10035000F894EC912E2B2C938FBFEACF3FB7F894F3
:1003600080910F0190911001A0911101B0911201A3
:1003700026B5A89B05C02F3F19F00196A11DB11D00
:100380003FBFBA2FA92F982F8827BC01CD01620F3C
:10039000711D811D911D42E0660F771F881F991FF7
:1003A0004A95D1F708950F931F93CF93DF93CDB75D
:1003B000DEB729970FB6F894DEBF0FBECDBF809190
:1003C0001C0190911D01892B09F47CC00E94AE0193
:1003D00000912201109123012091240130912501E7
:1003E000601771078207930740F4609322017093AE
:1003F0002301809324019093250100912201109103
:1004000023012091240130912501601B710B820B87
:10041000930B6C32714081059105C0F2F894809184
:100420001701909118019A838983E0911C01F09142
:100430001D01DF0111968081898790911301E09160
:100440002601F091270180912801992309F445C0E4
:100450009081982B98879081809589238F838F81B5
:100460008C8388E08B8358856F8149853B812C8103
:1004700089819A81508347FD252F3A952083262F25
:1004800039F0441F00C000006083000000C0F2CFBC
:1004900038E04D9160830000019761F7F0932701E8
:1004A000E093260149873B832C839A838983789440
:1004B0000E94AE0160932201709323018093240176
:1004C0009093250129960FB6F894DEBF0FBECDBFDD
:1004D000DF91CF911F910F9108959081982B98876C
:1004E0009081809589238F838F818E8388E08D838F
:1004F00058856F8149853D812E8189819A815083FC
:1005000047FD252F00C000C0208300C000C000C0F0
:1005100000C000C060830000262F3A9541F0441FC0
:10052000000000C000C000C000C000C0E8CF38E03C
:100530004D9100C0608300C0019709F7F093270137
:10054000E093260149873D832E83AFCF8F929F9200
:10055000AF92BF92CF92DF92EF92FF926B017C013C
:100560000E94AE014B015C01C114D104E104F1040D
:10057000B9F00E94AE01681979098A099B09683EA1
:1005800073408105910580F321E0C21AD108E1088A
:10059000F10888EE880E83E0981EA11CB11CE4CF00
:1005A000FF90EF90DF90CF90BF90AF909F908F9093
:1005B00008956F927F928F929F92AF92BF92CF9247
:1005C000DF92EF92FF920F931F93CF93DF934B0134
:1005D0005C018AE0682E712CC42ED12CF12CE12C08
:1005E000D0E0C0E010E000E080911501909116018C
:1005F0000817190750F4B501A401CE01800F911F0F
:100600000E948D000D5F1F4FEFCF0E94D301C701E5
:10061000B6010E94A60210E000E0809115019091C1
:1006200016010817190758F440E050E0BA01CE014E
:10063000800F911F0E948D000D5F1F4FEECF2196FE
:10064000C330D10579F681E0681A710849F6DF9167
:10065000CF911F910F91FF90EF90DF90CF90BF90BF
:10066000AF909F908F907F906F9008958F929F9200
:10067000AF92BF92CF92DF92EF92FF92CF93DF9330
:100680004B015C01D0E0C0E0C42ED12CF12CE12C58
:100690008091150190911601C817D90768F4B5012A
:1006A000A401CE010E948D000E94D301C701B601B2
:1006B0000E94A6022196ECCFDF91CF91FF90EF90A0
:1006C000DF90CF90BF90AF909F908F9008951F9232
:1006D0000F920FB60F9211242F933F938F939F93F6
:1006E000AF93BF9380910B0190910C01A0910D01EC
:1006F000B0910E0130910A0123E0230F2D3758F5F8
:100700000196A11DB11D20930A0180930B019093C6
:100710000C01A0930D01B0930E0180910F019091F7
:100720001001A0911101B09112010196A11DB11DFE
:1007300080930F0190931001A0931101B0931201C7
:10074000BF91AF919F918F913F912F910F900FBECD
:100750000F901F90189526E8230F0296A11DB11D3A
:10076000D2CF789484B5826084BD84B5816084BD25
:1007700085B5826085BD85B5816085BD80916E003F
:10078000816080936E001092810080918100826070
:1007900080938100809181008160809381008091AD
:1007A00080008160809380008091B100846080939C
:1007B000B1008091B00081608093B00080917A0098
:1007C000846080937A0080917A00826080937A00BE
:1007D00080917A00816080937A0080917A008068AD
:1007E00080937A001092C10062E082E00E94720160
:1007F0008091190190911A0197FD07C061E00E9454
:100800007201809119010E94270181E080931401F7
:100810000E94D301CC24CA94D12C40E0A42E40E005
:10082000B42E0E944E01892B09F0F2C08091000184
:10083000811102C080E0EDC064E170E080E090E0F2
:100840000E94A6020E944E01892B09F0E1C080910E
:1008500008019091090101968A309105CCF490939A
:10086000090180930801E0910801F0910901EA3043
:10087000F10500F7E25CFB4F0C9495054D0455041F
:100880005B04610467046F0475047B0481048704BE
:100890001092090110920801E6CF48E26CEC70E07A
:1008A00086E690E00E943603C5CF42E36FEF70E02A
:1008B0008FEB90E0F7CF48E26FEF7FEF80E090E0C2
:1008C000F1CF42E36FEF70E080E490E0EBCF48E2DD
:1008D00069E976E68FEF90E00E94D902ABCF42E360
:1008E00060E070E88FEF90E0F7CF48E260E070E002
:1008F0008FEF90E0F1CF42E360E87FEF80E090E09F
:10090000EBCF48E26CEC70E086E690E0E5CFF12CAE
:10091000E12CD0E0C0E010E000E080911501909162
:1009200016010817190708F049C0C701800F911F69
:10093000B6010E94810580958535D0F4982F990FD6
:10094000990F482F491B9FEF940F492F50E070E0FB
:1009500060E0BA0155274427982F990F890F482B3B
:10096000CE01800F911F0E948D000D5F1F4FD5CFCC
:100970008A3A88F48555482F440F480F50E070E0BC
:1009800060E0762F652F542F4427982F990F990FE9
:10099000891B8150E4CF8A5A982F990F990F282FDD
:1009A000291B922F9150482F440F480F50E070E0C0
:1009B00060E0BA0155274427592BD2CF0E94D301BA
:1009C00068E270E080E090E00E94A60210E000E0A3
:1009D00080911501909116010817190758F440E00D
:1009E00050E0BA01CE01800F911F0E948D000D5F73
:1009F0001F4FEECF2196C330D10509F08CCF8FEF7A
:100A0000E81AF80AE11421E0F20609F082CF12CFC9
:100A100081E080930001A114B10409F402CF0E9487
:100A20000000FFCE1092140110921B0110922201BF
:100A300010922301109224011092250181E08093ED
:100A4000210180931E0110921F0192E090932001DA
:100A50008093130180E390E0909318018093170135
:100A60000E94AF0590931D0180931C01009781F1B6
:100A700020E3FC0111922A95E9F780E190E0909340
:100A800016018093150187E090E090931A018093FE
:100A9000190180911401882339F061E087E00E94F8
:100AA000720187E00E942701EDE8F0E0E491F0E0B8
:100AB000EE0FFF1FE458FF4F85919491909327010B
:100AC00080932601E1EAF0E0E491E09328010895A3
:100AD0001092180110921701109216011092150130
:100AE000D2CF80911C0190911D010E944B068091F4
:100AF000190190911A0197FD03C060E00C947201F6
:100B0000089597FB072E16F4009407D077FD09D0BF
:100B10000E949B0507FC05D03EF4909581959F4F60
:100B20000895709561957F4F0895EE0FFF1F059012
:100B3000F491E02D0994AA1BBB1B51E107C0AA1F29
:100B4000BB1FA617B70710F0A61BB70B881F991F6E
:100B50005A95A9F780959095BC01CD0108950F9302
:100B60001F93CF93DF938230910510F482E090E0E1
:100B7000E0912B01F0912C0130E020E0B0E0A0E00A
:100B8000309799F42115310509F44AC0281B390B17
:100B900024303105D8F58A819B816115710589F171
:100BA000FB0193838283FE0111C040815181028148
:100BB000138148175907E0F04817590799F410971F
:100BC00061F012960C93129713961C933296CF01F4
:100BD000DF91CF911F910F91089500932B011093F6
:100BE0002C01F4CF2115310551F04217530738F08D
:100BF000A901DB019A01BD01DF01F801C1CFEF01BD
:100C0000F9CF90932C0180932B01CDCFFE01E20F01
:100C1000F31F819391932250310939832883D7CFD1
:100C20002091290130912A01232B41F420910301C5
:100C30003091040130932A01209329012091010170
:100C4000309102012115310541F42DB73EB7409195
:100C5000050150910601241B350BE0912901F0910B
:100C60002A01E217F307A0F42E1B3F0B28173907C0
:100C700078F0AC014E5F5F4F2417350748F04E0FF8
:100C80005F1F50932A0140932901819391939FCF35
:100C9000F0E0E0E09CCFCF93DF930097E9F0FC0118
:100CA000329713821282A0912B01B0912C01ED0199
:100CB00030E020E01097A1F420813181820F931F52
:100CC0002091290130912A012817390709F061C0C4
:100CD000F0932A01E0932901DF91CF910895EA0171
:100CE000CE17DF07E8F54A815B819E01411551056A
:100CF000B1F7E901FB83EA8349915991C40FD51FEC
:100D0000EC17FD0761F4808191810296840F951F95
:100D1000E90199838883828193819B838A83F0E0B0
:100D2000E0E012968D919C9113970097B9F52D9163
:100D30003C911197CD010296820F931F20912901BA
:100D400030912A012817390739F6309751F510925A
:100D50002C0110922B01B0932A01A0932901BCCF42
:100D6000D383C28340815181840F951FC817D9074F
:100D700061F44E5F5F4F88819981480F591F5183FD
:100D800040838A819B81938382832115310509F0F9
:100D9000B0CFF0932C01E0932B019ECFFD01DC013D
:100DA000C0CF13821282D7CF10E0C2E6D0E004C0D9
:100DB000FE010E9495052196C336D107C9F7F89424
:020DC000FFCF63
:080DC2000100002D018000007A
:00000001FF
